{
  "_format": "hh-sol-artifact-1",
  "contractName": "Passport",
  "sourceName": "contracts/Passport.sol",
  "abi": [
    {
      "inputs": [],
      "stateMutability": "nonpayable",
      "type": "constructor"
    },
    {
      "inputs": [
        {
          "internalType": "address",
          "name": "sender",
          "type": "address"
        },
        {
          "internalType": "uint256",
          "name": "tokenId",
          "type": "uint256"
        },
        {
          "internalType": "address",
          "name": "owner",
          "type": "address"
        }
      ],
      "name": "ERC721IncorrectOwner",
      "type": "error"
    },
    {
      "inputs": [
        {
          "internalType": "address",
          "name": "operator",
          "type": "address"
        },
        {
          "internalType": "uint256",
          "name": "tokenId",
          "type": "uint256"
        }
      ],
      "name": "ERC721InsufficientApproval",
      "type": "error"
    },
    {
      "inputs": [
        {
          "internalType": "address",
          "name": "approver",
          "type": "address"
        }
      ],
      "name": "ERC721InvalidApprover",
      "type": "error"
    },
    {
      "inputs": [
        {
          "internalType": "address",
          "name": "operator",
          "type": "address"
        }
      ],
      "name": "ERC721InvalidOperator",
      "type": "error"
    },
    {
      "inputs": [
        {
          "internalType": "address",
          "name": "owner",
          "type": "address"
        }
      ],
      "name": "ERC721InvalidOwner",
      "type": "error"
    },
    {
      "inputs": [
        {
          "internalType": "address",
          "name": "receiver",
          "type": "address"
        }
      ],
      "name": "ERC721InvalidReceiver",
      "type": "error"
    },
    {
      "inputs": [
        {
          "internalType": "address",
          "name": "sender",
          "type": "address"
        }
      ],
      "name": "ERC721InvalidSender",
      "type": "error"
    },
    {
      "inputs": [
        {
          "internalType": "uint256",
          "name": "tokenId",
          "type": "uint256"
        }
      ],
      "name": "ERC721NonexistentToken",
      "type": "error"
    },
    {
      "anonymous": false,
      "inputs": [
        {
          "indexed": true,
          "internalType": "address",
          "name": "owner",
          "type": "address"
        },
        {
          "indexed": true,
          "internalType": "address",
          "name": "approved",
          "type": "address"
        },
        {
          "indexed": true,
          "internalType": "uint256",
          "name": "tokenId",
          "type": "uint256"
        }
      ],
      "name": "Approval",
      "type": "event"
    },
    {
      "anonymous": false,
      "inputs": [
        {
          "indexed": true,
          "internalType": "address",
          "name": "owner",
          "type": "address"
        },
        {
          "indexed": true,
          "internalType": "address",
          "name": "operator",
          "type": "address"
        },
        {
          "indexed": false,
          "internalType": "bool",
          "name": "approved",
          "type": "bool"
        }
      ],
      "name": "ApprovalForAll",
      "type": "event"
    },
    {
      "anonymous": false,
      "inputs": [
        {
          "indexed": true,
          "internalType": "address",
          "name": "from",
          "type": "address"
        },
        {
          "indexed": true,
          "internalType": "address",
          "name": "to",
          "type": "address"
        },
        {
          "indexed": true,
          "internalType": "uint256",
          "name": "tokenId",
          "type": "uint256"
        }
      ],
      "name": "Transfer",
      "type": "event"
    },
    {
      "inputs": [
        {
          "internalType": "address",
          "name": "to",
          "type": "address"
        },
        {
          "internalType": "uint256",
          "name": "tokenId",
          "type": "uint256"
        }
      ],
      "name": "approve",
      "outputs": [],
      "stateMutability": "nonpayable",
      "type": "function"
    },
    {
      "inputs": [
        {
          "internalType": "address",
          "name": "owner",
          "type": "address"
        }
      ],
      "name": "balanceOf",
      "outputs": [
        {
          "internalType": "uint256",
          "name": "",
          "type": "uint256"
        }
      ],
      "stateMutability": "view",
      "type": "function"
    },
    {
      "inputs": [
        {
          "internalType": "uint256",
          "name": "tokenId",
          "type": "uint256"
        }
      ],
      "name": "getApproved",
      "outputs": [
        {
          "internalType": "address",
          "name": "",
          "type": "address"
        }
      ],
      "stateMutability": "view",
      "type": "function"
    },
    {
      "inputs": [
        {
          "internalType": "address",
          "name": "owner",
          "type": "address"
        },
        {
          "internalType": "address",
          "name": "operator",
          "type": "address"
        }
      ],
      "name": "isApprovedForAll",
      "outputs": [
        {
          "internalType": "bool",
          "name": "",
          "type": "bool"
        }
      ],
      "stateMutability": "view",
      "type": "function"
    },
    {
      "inputs": [],
      "name": "name",
      "outputs": [
        {
          "internalType": "string",
          "name": "",
          "type": "string"
        }
      ],
      "stateMutability": "view",
      "type": "function"
    },
    {
      "inputs": [
        {
          "internalType": "uint256",
          "name": "tokenId",
          "type": "uint256"
        }
      ],
      "name": "ownerOf",
      "outputs": [
        {
          "internalType": "address",
          "name": "",
          "type": "address"
        }
      ],
      "stateMutability": "view",
      "type": "function"
    },
    {
      "inputs": [],
      "name": "safeMint",
      "outputs": [],
      "stateMutability": "nonpayable",
      "type": "function"
    },
    {
      "inputs": [
        {
          "internalType": "address",
          "name": "from",
          "type": "address"
        },
        {
          "internalType": "address",
          "name": "to",
          "type": "address"
        },
        {
          "internalType": "uint256",
          "name": "tokenId",
          "type": "uint256"
        }
      ],
      "name": "safeTransferFrom",
      "outputs": [],
      "stateMutability": "nonpayable",
      "type": "function"
    },
    {
      "inputs": [
        {
          "internalType": "address",
          "name": "from",
          "type": "address"
        },
        {
          "internalType": "address",
          "name": "to",
          "type": "address"
        },
        {
          "internalType": "uint256",
          "name": "tokenId",
          "type": "uint256"
        },
        {
          "internalType": "bytes",
          "name": "data",
          "type": "bytes"
        }
      ],
      "name": "safeTransferFrom",
      "outputs": [],
      "stateMutability": "nonpayable",
      "type": "function"
    },
    {
      "inputs": [
        {
          "internalType": "address",
          "name": "operator",
          "type": "address"
        },
        {
          "internalType": "bool",
          "name": "approved",
          "type": "bool"
        }
      ],
      "name": "setApprovalForAll",
      "outputs": [],
      "stateMutability": "nonpayable",
      "type": "function"
    },
    {
      "inputs": [
        {
          "internalType": "bytes4",
          "name": "interfaceId",
          "type": "bytes4"
        }
      ],
      "name": "supportsInterface",
      "outputs": [
        {
          "internalType": "bool",
          "name": "",
          "type": "bool"
        }
      ],
      "stateMutability": "view",
      "type": "function"
    },
    {
      "inputs": [],
      "name": "symbol",
      "outputs": [
        {
          "internalType": "string",
          "name": "",
          "type": "string"
        }
      ],
      "stateMutability": "view",
      "type": "function"
    },
    {
      "inputs": [
        {
          "internalType": "uint256",
          "name": "tokenId",
          "type": "uint256"
        }
      ],
      "name": "tokenURI",
      "outputs": [
        {
          "internalType": "string",
          "name": "",
          "type": "string"
        }
      ],
      "stateMutability": "view",
      "type": "function"
    },
    {
      "inputs": [
        {
          "internalType": "address",
          "name": "from",
          "type": "address"
        },
        {
          "internalType": "address",
          "name": "to",
          "type": "address"
        },
        {
          "internalType": "uint256",
          "name": "tokenId",
          "type": "uint256"
        }
      ],
      "name": "transferFrom",
      "outputs": [],
      "stateMutability": "nonpayable",
      "type": "function"
    }
  ],
  "bytecode": "0x60806040523480156200001157600080fd5b506040518060400160405280600881526020017f50617373706f72740000000000000000000000000000000000000000000000008152506040518060400160405280600881526020017f50617373706f727400000000000000000000000000000000000000000000000081525081600090816200008f919062000324565b508060019081620000a1919062000324565b5050506200040b565b600081519050919050565b7f4e487b7100000000000000000000000000000000000000000000000000000000600052604160045260246000fd5b7f4e487b7100000000000000000000000000000000000000000000000000000000600052602260045260246000fd5b600060028204905060018216806200012c57607f821691505b602082108103620001425762000141620000e4565b5b50919050565b60008190508160005260206000209050919050565b60006020601f8301049050919050565b600082821b905092915050565b600060088302620001ac7fffffffffffffffffffffffffffffffffffffffffffffffffffffffffffffffff826200016d565b620001b886836200016d565b95508019841693508086168417925050509392505050565b6000819050919050565b6000819050919050565b600062000205620001ff620001f984620001d0565b620001da565b620001d0565b9050919050565b6000819050919050565b6200022183620001e4565b6200023962000230826200020c565b8484546200017a565b825550505050565b600090565b6200025062000241565b6200025d81848462000216565b505050565b5b8181101562000285576200027960008262000246565b60018101905062000263565b5050565b601f821115620002d4576200029e8162000148565b620002a9846200015d565b81016020851015620002b9578190505b620002d1620002c8856200015d565b83018262000262565b50505b505050565b600082821c905092915050565b6000620002f960001984600802620002d9565b1980831691505092915050565b6000620003148383620002e6565b9150826002028217905092915050565b6200032f82620000aa565b67ffffffffffffffff8111156200034b576200034a620000b5565b5b62000357825462000113565b6200036482828562000289565b600060209050601f8311600181146200039c576000841562000387578287015190505b62000393858262000306565b86555062000403565b601f198416620003ac8662000148565b60005b82811015620003d657848901518255600182019150602085019450602081019050620003af565b86831015620003f65784890151620003f2601f891682620002e6565b8355505b6001600288020188555050505b505050505050565b611e6d806200041b6000396000f3fe608060405234801561001057600080fd5b50600436106100ea5760003560e01c80636871ee401161008c578063a22cb46511610066578063a22cb46514610249578063b88d4fde14610265578063c87b56dd14610281578063e985e9c5146102b1576100ea565b80636871ee40146101f157806370a08231146101fb57806395d89b411461022b576100ea565b8063095ea7b3116100c8578063095ea7b31461016d57806323b872dd1461018957806342842e0e146101a55780636352211e146101c1576100ea565b806301ffc9a7146100ef57806306fdde031461011f578063081812fc1461013d575b600080fd5b61010960048036038101906101049190611640565b6102e1565b6040516101169190611688565b60405180910390f35b6101276103c3565b6040516101349190611733565b60405180910390f35b6101576004803603810190610152919061178b565b610455565b60405161016491906117f9565b60405180910390f35b61018760048036038101906101829190611840565b610471565b005b6101a3600480360381019061019e9190611880565b610487565b005b6101bf60048036038101906101ba9190611880565b610589565b005b6101db60048036038101906101d6919061178b565b6105a9565b6040516101e891906117f9565b60405180910390f35b6101f96105bb565b005b610215600480360381019061021091906118d3565b6105dd565b604051610222919061190f565b60405180910390f35b610233610697565b6040516102409190611733565b60405180910390f35b610263600480360381019061025e9190611956565b610729565b005b61027f600480360381019061027a9190611acb565b61073f565b005b61029b6004803603810190610296919061178b565b61075c565b6040516102a89190611733565b60405180910390f35b6102cb60048036038101906102c69190611b4e565b6107c5565b6040516102d89190611688565b60405180910390f35b60007f80ac58cd000000000000000000000000000000000000000000000000000000007bffffffffffffffffffffffffffffffffffffffffffffffffffffffff1916827bffffffffffffffffffffffffffffffffffffffffffffffffffffffff191614806103ac57507f5b5e139f000000000000000000000000000000000000000000000000000000007bffffffffffffffffffffffffffffffffffffffffffffffffffffffff1916827bffffffffffffffffffffffffffffffffffffffffffffffffffffffff1916145b806103bc57506103bb82610859565b5b9050919050565b6060600080546103d290611bbd565b80601f01602080910402602001604051908101604052809291908181526020018280546103fe90611bbd565b801561044b5780601f106104205761010080835404028352916020019161044b565b820191906000526020600020905b81548152906001019060200180831161042e57829003601f168201915b5050505050905090565b6000610460826108c3565b5061046a8261094b565b9050919050565b610483828261047e610988565b610990565b5050565b600073ffffffffffffffffffffffffffffffffffffffff168273ffffffffffffffffffffffffffffffffffffffff16036104f95760006040517f64a0ae920000000000000000000000000000000000000000000000000000000081526004016104f091906117f9565b60405180910390fd5b600061050d8383610508610988565b6109a2565b90508373ffffffffffffffffffffffffffffffffffffffff168173ffffffffffffffffffffffffffffffffffffffff1614610583578382826040517f64283d7b00000000000000000000000000000000000000000000000000000000815260040161057a93929190611bee565b60405180910390fd5b50505050565b6105a48383836040518060200160405280600081525061073f565b505050565b60006105b4826108c3565b9050919050565b6105db33600660008154809291906105d290611c54565b91905055610bbc565b565b60008073ffffffffffffffffffffffffffffffffffffffff168273ffffffffffffffffffffffffffffffffffffffff16036106505760006040517f89c62b6400000000000000000000000000000000000000000000000000000000815260040161064791906117f9565b60405180910390fd5b600360008373ffffffffffffffffffffffffffffffffffffffff1673ffffffffffffffffffffffffffffffffffffffff168152602001908152602001600020549050919050565b6060600180546106a690611bbd565b80601f01602080910402602001604051908101604052809291908181526020018280546106d290611bbd565b801561071f5780601f106106f45761010080835404028352916020019161071f565b820191906000526020600020905b81548152906001019060200180831161070257829003601f168201915b5050505050905090565b61073b610734610988565b8383610bda565b5050565b61074a848484610487565b61075684848484610d49565b50505050565b6060610767826108c3565b506000610772610f00565b9050600081511161079257604051806020016040528060008152506107bd565b8061079c84610f17565b6040516020016107ad929190611cd8565b6040516020818303038152906040525b915050919050565b6000600560008473ffffffffffffffffffffffffffffffffffffffff1673ffffffffffffffffffffffffffffffffffffffff16815260200190815260200160002060008373ffffffffffffffffffffffffffffffffffffffff1673ffffffffffffffffffffffffffffffffffffffff16815260200190815260200160002060009054906101000a900460ff16905092915050565b60007f01ffc9a7000000000000000000000000000000000000000000000000000000007bffffffffffffffffffffffffffffffffffffffffffffffffffffffff1916827bffffffffffffffffffffffffffffffffffffffffffffffffffffffff1916149050919050565b6000806108cf83610fe5565b9050600073ffffffffffffffffffffffffffffffffffffffff168173ffffffffffffffffffffffffffffffffffffffff160361094257826040517f7e273289000000000000000000000000000000000000000000000000000000008152600401610939919061190f565b60405180910390fd5b80915050919050565b60006004600083815260200190815260200160002060009054906101000a900473ffffffffffffffffffffffffffffffffffffffff169050919050565b600033905090565b61099d8383836001611022565b505050565b6000806109ae84610fe5565b9050600073ffffffffffffffffffffffffffffffffffffffff168373ffffffffffffffffffffffffffffffffffffffff16146109f0576109ef8184866111e7565b5b600073ffffffffffffffffffffffffffffffffffffffff168173ffffffffffffffffffffffffffffffffffffffff1614610a8157610a32600085600080611022565b6001600360008373ffffffffffffffffffffffffffffffffffffffff1673ffffffffffffffffffffffffffffffffffffffff168152602001908152602001600020600082825403925050819055505b600073ffffffffffffffffffffffffffffffffffffffff168573ffffffffffffffffffffffffffffffffffffffff1614610b04576001600360008773ffffffffffffffffffffffffffffffffffffffff1673ffffffffffffffffffffffffffffffffffffffff168152602001908152602001600020600082825401925050819055505b846002600086815260200190815260200160002060006101000a81548173ffffffffffffffffffffffffffffffffffffffff021916908373ffffffffffffffffffffffffffffffffffffffff160217905550838573ffffffffffffffffffffffffffffffffffffffff168273ffffffffffffffffffffffffffffffffffffffff167fddf252ad1be2c89b69c2b068fc378daa952ba7f163c4a11628f55a4df523b3ef60405160405180910390a4809150509392505050565b610bd68282604051806020016040528060008152506112ab565b5050565b600073ffffffffffffffffffffffffffffffffffffffff168273ffffffffffffffffffffffffffffffffffffffff1603610c4b57816040517f5b08ba18000000000000000000000000000000000000000000000000000000008152600401610c4291906117f9565b60405180910390fd5b80600560008573ffffffffffffffffffffffffffffffffffffffff1673ffffffffffffffffffffffffffffffffffffffff16815260200190815260200160002060008473ffffffffffffffffffffffffffffffffffffffff1673ffffffffffffffffffffffffffffffffffffffff16815260200190815260200160002060006101000a81548160ff0219169083151502179055508173ffffffffffffffffffffffffffffffffffffffff168373ffffffffffffffffffffffffffffffffffffffff167f17307eab39ab6107e8899845ad3d59bd9653f200f220920489ca2b5937696c3183604051610d3c9190611688565b60405180910390a3505050565b60008373ffffffffffffffffffffffffffffffffffffffff163b1115610efa578273ffffffffffffffffffffffffffffffffffffffff1663150b7a02610d8d610988565b8685856040518563ffffffff1660e01b8152600401610daf9493929190611d51565b6020604051808303816000875af1925050508015610deb57506040513d601f19601f82011682018060405250810190610de89190611db2565b60015b610e6f573d8060008114610e1b576040519150601f19603f3d011682016040523d82523d6000602084013e610e20565b606091505b506000815103610e6757836040517f64a0ae92000000000000000000000000000000000000000000000000000000008152600401610e5e91906117f9565b60405180910390fd5b805181602001fd5b63150b7a0260e01b7bffffffffffffffffffffffffffffffffffffffffffffffffffffffff1916817bffffffffffffffffffffffffffffffffffffffffffffffffffffffff191614610ef857836040517f64a0ae92000000000000000000000000000000000000000000000000000000008152600401610eef91906117f9565b60405180910390fd5b505b50505050565b606060405180602001604052806000815250905090565b606060006001610f26846112c7565b01905060008167ffffffffffffffff811115610f4557610f446119a0565b5b6040519080825280601f01601f191660200182016040528015610f775781602001600182028036833780820191505090505b509050600082602001820190505b600115610fda578080600190039150507f3031323334353637383961626364656600000000000000000000000000000000600a86061a8153600a8581610fce57610fcd611ddf565b5b04945060008503610f85575b819350505050919050565b60006002600083815260200190815260200160002060009054906101000a900473ffffffffffffffffffffffffffffffffffffffff169050919050565b808061105b5750600073ffffffffffffffffffffffffffffffffffffffff168273ffffffffffffffffffffffffffffffffffffffff1614155b1561118f57600061106b846108c3565b9050600073ffffffffffffffffffffffffffffffffffffffff168373ffffffffffffffffffffffffffffffffffffffff16141580156110d657508273ffffffffffffffffffffffffffffffffffffffff168173ffffffffffffffffffffffffffffffffffffffff1614155b80156110e957506110e781846107c5565b155b1561112b57826040517fa9fbf51f00000000000000000000000000000000000000000000000000000000815260040161112291906117f9565b60405180910390fd5b811561118d57838573ffffffffffffffffffffffffffffffffffffffff168273ffffffffffffffffffffffffffffffffffffffff167f8c5be1e5ebec7d5bd14f71427d1e84f3dd0314c0f7b2291e5b200ac8c7c3b92560405160405180910390a45b505b836004600085815260200190815260200160002060006101000a81548173ffffffffffffffffffffffffffffffffffffffff021916908373ffffffffffffffffffffffffffffffffffffffff16021790555050505050565b6111f283838361141a565b6112a657600073ffffffffffffffffffffffffffffffffffffffff168373ffffffffffffffffffffffffffffffffffffffff160361126757806040517f7e27328900000000000000000000000000000000000000000000000000000000815260040161125e919061190f565b60405180910390fd5b81816040517f177e802f00000000000000000000000000000000000000000000000000000000815260040161129d929190611e0e565b60405180910390fd5b505050565b6112b583836114db565b6112c26000848484610d49565b505050565b600080600090507a184f03e93ff9f4daa797ed6e38ed64bf6a1f0100000000000000008310611325577a184f03e93ff9f4daa797ed6e38ed64bf6a1f010000000000000000838161131b5761131a611ddf565b5b0492506040810190505b6d04ee2d6d415b85acef81000000008310611362576d04ee2d6d415b85acef8100000000838161135857611357611ddf565b5b0492506020810190505b662386f26fc10000831061139157662386f26fc10000838161138757611386611ddf565b5b0492506010810190505b6305f5e10083106113ba576305f5e10083816113b0576113af611ddf565b5b0492506008810190505b61271083106113df5761271083816113d5576113d4611ddf565b5b0492506004810190505b6064831061140257606483816113f8576113f7611ddf565b5b0492506002810190505b600a8310611411576001810190505b80915050919050565b60008073ffffffffffffffffffffffffffffffffffffffff168373ffffffffffffffffffffffffffffffffffffffff16141580156114d257508273ffffffffffffffffffffffffffffffffffffffff168473ffffffffffffffffffffffffffffffffffffffff161480611493575061149284846107c5565b5b806114d157508273ffffffffffffffffffffffffffffffffffffffff166114b98361094b565b73ffffffffffffffffffffffffffffffffffffffff16145b5b90509392505050565b600073ffffffffffffffffffffffffffffffffffffffff168273ffffffffffffffffffffffffffffffffffffffff160361154d5760006040517f64a0ae9200000000000000000000000000000000000000000000000000000000815260040161154491906117f9565b60405180910390fd5b600061155b838360006109a2565b9050600073ffffffffffffffffffffffffffffffffffffffff168173ffffffffffffffffffffffffffffffffffffffff16146115cf5760006040517f73c6ac6e0000000000000000000000000000000000000000000000000000000081526004016115c691906117f9565b60405180910390fd5b505050565b6000604051905090565b600080fd5b600080fd5b60007fffffffff0000000000000000000000000000000000000000000000000000000082169050919050565b61161d816115e8565b811461162857600080fd5b50565b60008135905061163a81611614565b92915050565b600060208284031215611656576116556115de565b5b60006116648482850161162b565b91505092915050565b60008115159050919050565b6116828161166d565b82525050565b600060208201905061169d6000830184611679565b92915050565b600081519050919050565b600082825260208201905092915050565b60005b838110156116dd5780820151818401526020810190506116c2565b60008484015250505050565b6000601f19601f8301169050919050565b6000611705826116a3565b61170f81856116ae565b935061171f8185602086016116bf565b611728816116e9565b840191505092915050565b6000602082019050818103600083015261174d81846116fa565b905092915050565b6000819050919050565b61176881611755565b811461177357600080fd5b50565b6000813590506117858161175f565b92915050565b6000602082840312156117a1576117a06115de565b5b60006117af84828501611776565b91505092915050565b600073ffffffffffffffffffffffffffffffffffffffff82169050919050565b60006117e3826117b8565b9050919050565b6117f3816117d8565b82525050565b600060208201905061180e60008301846117ea565b92915050565b61181d816117d8565b811461182857600080fd5b50565b60008135905061183a81611814565b92915050565b60008060408385031215611857576118566115de565b5b60006118658582860161182b565b925050602061187685828601611776565b9150509250929050565b600080600060608486031215611899576118986115de565b5b60006118a78682870161182b565b93505060206118b88682870161182b565b92505060406118c986828701611776565b9150509250925092565b6000602082840312156118e9576118e86115de565b5b60006118f78482850161182b565b91505092915050565b61190981611755565b82525050565b60006020820190506119246000830184611900565b92915050565b6119338161166d565b811461193e57600080fd5b50565b6000813590506119508161192a565b92915050565b6000806040838503121561196d5761196c6115de565b5b600061197b8582860161182b565b925050602061198c85828601611941565b9150509250929050565b600080fd5b600080fd5b7f4e487b7100000000000000000000000000000000000000000000000000000000600052604160045260246000fd5b6119d8826116e9565b810181811067ffffffffffffffff821117156119f7576119f66119a0565b5b80604052505050565b6000611a0a6115d4565b9050611a1682826119cf565b919050565b600067ffffffffffffffff821115611a3657611a356119a0565b5b611a3f826116e9565b9050602081019050919050565b82818337600083830152505050565b6000611a6e611a6984611a1b565b611a00565b905082815260208101848484011115611a8a57611a8961199b565b5b611a95848285611a4c565b509392505050565b600082601f830112611ab257611ab1611996565b5b8135611ac2848260208601611a5b565b91505092915050565b60008060008060808587031215611ae557611ae46115de565b5b6000611af38782880161182b565b9450506020611b048782880161182b565b9350506040611b1587828801611776565b925050606085013567ffffffffffffffff811115611b3657611b356115e3565b5b611b4287828801611a9d565b91505092959194509250565b60008060408385031215611b6557611b646115de565b5b6000611b738582860161182b565b9250506020611b848582860161182b565b9150509250929050565b7f4e487b7100000000000000000000000000000000000000000000000000000000600052602260045260246000fd5b60006002820490506001821680611bd557607f821691505b602082108103611be857611be7611b8e565b5b50919050565b6000606082019050611c0360008301866117ea565b611c106020830185611900565b611c1d60408301846117ea565b949350505050565b7f4e487b7100000000000000000000000000000000000000000000000000000000600052601160045260246000fd5b6000611c5f82611755565b91507fffffffffffffffffffffffffffffffffffffffffffffffffffffffffffffffff8203611c9157611c90611c25565b5b600182019050919050565b600081905092915050565b6000611cb2826116a3565b611cbc8185611c9c565b9350611ccc8185602086016116bf565b80840191505092915050565b6000611ce48285611ca7565b9150611cf08284611ca7565b91508190509392505050565b600081519050919050565b600082825260208201905092915050565b6000611d2382611cfc565b611d2d8185611d07565b9350611d3d8185602086016116bf565b611d46816116e9565b840191505092915050565b6000608082019050611d6660008301876117ea565b611d7360208301866117ea565b611d806040830185611900565b8181036060830152611d928184611d18565b905095945050505050565b600081519050611dac81611614565b92915050565b600060208284031215611dc857611dc76115de565b5b6000611dd684828501611d9d565b91505092915050565b7f4e487b7100000000000000000000000000000000000000000000000000000000600052601260045260246000fd5b6000604082019050611e2360008301856117ea565b611e306020830184611900565b939250505056fea2646970667358221220d7b00f1128c5a2b809e629ea1d7c3166653b623cfd7ea6417d537e1fe33fc9da64736f6c63430008180033",
  "linkReferences": {},
  "deployedLinkReferences": {}
}